:1040000000930020D39B0300BD0A010065960300C6
:10401000A70A0A010042000004180FAC2069000141
:104020000000000000000000000000000000000090
:1040300000000000B0C60300000000000000000007
:104040000000000000000000FFFFFFFFFFFFFFFF78
:10405000FFFFFFFF00E00A00140000000000000066
:10406000FFFFFFFFFFFFFFFF8000000000000000D8
:104070000000000000000000000000000000000040
:104080000000000000000000F0FF0020F0FF002012
:104090000093002004500400A49C0300A089002089
:0C40A0004416002000E00B0000000000AF
:1042000000930020D39B0300BD0A010065960300C4
:104210001DFA0200699603006D960300000000007D
:1042200000000000000000000000000043C6000085
:10423000719603007FB300001FEE0000BBEE00008C
:104240007996030079960300799603007996030026
:104250007996030033FB02005D7700007D7B03004D
:104260004D7B0300637B0300593301003D3E010099
:1042700079960300673E0100799603007996030062
:10428000799603007996030079960300EBEE00001F
:1042900079960300B117030079960300799603001D
:1042A00079960300171A0300091A03007996030090
:1042B000799603007996030079960300EB5E03007C
:1042C000AF5E0300AD5E03008D590300E95E03009D
:1042D000B15E0300B55E0300B35E03001D79030009
:1042E0001D5F0300799603007996030009680000BA
:1042F000799603002313030079960300DBF5000091
:104300007996030079960300799603007996030065
:104310007996030079960300799603007996030055
:104320007996030079960300799603007996030045
:1043300079960300103730B54A4A4A4B4B4C2468F3
:10434000650702D54FF0FF3030BDC50701D41C42D0
:1043500005D100EA04058D4206D11C4202D06FF05F
:10436000010030BD002030BD521EE7D16FF0020EBB
:10437000500970B50C463D4D6860E868403C400A05
:1043800070BD54F8040BA860161F03E00A104936EC
:104390001F46B108210820FFF7CAFF0100F4D0042E
:1043A00021296070BD0420286000F024F801000479
:1043B000D100212120BDE87040B9E770BD38B52992
:1043C0004CE168090C01F0010541F67131E162012F
:1043D00021264A1160606002202032120B32100741
:1043E00001D100F007F80121211820060DB10021AC
:1043F000E16232BD44400F99E72DE9F84304468954
:104400004616460020164F394822084812394812ED
:104410001430102102E02C19A944761B76B104F562
:104420000050400B4003051BAE4238BF35462A46BC
:1044300049462046FFF795A61003ECD00121092E2E
:10444000101BB8F1000F1CBF00213962BDE8F283D8
:10445000000080969800020001001C000340100438
:10446000130C1004000120034000000038B504467E
:104470000D46104600F0D9F800202070A847BDE88E
:10448000314000F0E0B800224D494E48EEE70022EE
:104490004D494E48EAE700224D494E48E6E770B5DF
:1044A00004460D461646304600F0C4F80020207041
:1044B0003046A847BDE8704000F0C5B80122464923
:1044C0004648ECE7012246494648E8E701224649CA
:1044D0004648E4E780B5012000F0ECF9444800F0DC
:1044E0007DF94449087001BD80B500F0FBF9012851
:1044F00005D040480078BDE8024000F05AB901BD3F
:1045000030B5002400E0641CE3B23B4D2D88AB4283
:104510000FD23A4BE4B20C2515FB04F52B441D7861
:10452000854201BF5D888D421D799542EBD11846C9
:1045300030BD002030BD80B519B900F0B7F80020BB
:1045400002BDB1F1004F02D200F0BBF8F7E7022044
:1045500002BDB1F5000F3CBF0902FFF7ECBF02201E
:10456000704770B504461D46FFF7CAFF06000ED01F
:10457000204600F00BFD50B12946B068FFF7DBFF85
:1045800028B9049870710598B071002070BD0220A0
:1045900070BD1CB5049C019400931346012205E0F4
:1045A0001CB5049C0194009313460022FFF7D9FF29
:1045B00016BD80B500230093FFF7F2FF02BD000097
:1045C000EF17020034A5002079EE00003CA5002082
:1045D000558B020044A5002003EF02001CA500201B
:1045E00011EE010024A50020E52102002CA50020E9
:1045F000009500209FFE00209C9E002044940020F7
:1046000080B5FFF77DFF20B1002180680170002098
:1046100002BD022002BD0122F2E70022F0E770474E
:104620000C480D4908600020704700B170207047A9
:104630000020704780B500F013F8FF2801D1A320B7
:1046400002BD002002BD00207047704700BF034834
:1046500000787047C24A0400E0A900204CA700205F
:1046600080B500F0CFFCFF2818BF002002BD00215C
:1046700001707047007800B10120704700F016B853
:10468000FFF759BFFFF765BF38B54478456800F0BC
:10469000A7FF0C214C438A498A4B0A59521B9A4264
:1046A00038BF0D51BDE8324000F0A0BF10B5044640
:1046B00000F0D2FF6060042020702046BDE810406A
:1046C000E2E738B504460D4600F0C6FF2D186560D8
:1046D000012020702046BDE83240D5E710B50446E1
:1046E000207860B1042806D000F0B6FF6168754BF1
:1046F000421A9A4201D2002010BD081A10BD4FF094
:10470000FF3010BD70B5044600F0A6FF054600F06E
:1047100067FF0646606800226FF0004100F007F86E
:10472000451925603046BDE8704000F05FBFF8B520
:1047300005460E46144600F08FFF024600239CB14A
:10474000FF20207010E0087860B1042811D048687C
:104750005C4F111AB9420CD3801AB04202D20646FD
:1047600004B123705B1C083529680029EBD1304661
:10477000F2BD04B123700020F2BD70B5054600F013
:104780006BFF0646504C10E0017869B1042904D053
:1047900041684C4A711A914206D20423037020608A
:1047A0006968884700202060083528680028EBD118
:1047B00070BD10B5044600F04FFF0C225443404A30
:1047C000404B1159401A984207D214446068FFF7D1
:1047D000D4FF2046BDE8104094E710BD70B50446F4
:1047E0003A4E3B4A70781378984204D35FF0F60152
:1047F00038A000F097FF75780C20314A2B464343D0
:10480000691C7170D11801264C600E7200E0457071
:1048100054F8080B0028FAD10846FFF773FF284622
:1048200070BD0000F8B50C244FF0FF3160430091DB
:10483000234D05F1080100220A54244B93F800008F
:1048400068B301F063F820B940F22F1121A000F005
:1048500069FF00F001FF024600261C4BDFF864C030
:104860005978F0B2884211D260432958571A6745E7
:1048700015D305F10807385C891A80B979B1009819
:10488000814288BF01460091761CE9E7684601F045
:104890005DF810B9684600F002FF0120F2BD01F09A
:1048A0005EF80020F2BD0C214843054B012218445C
:1048B00002727047054908707047034800687047E6
:1048C000C0F7002001000080FCF700209DFE0020C2
:1048D000FA4A04006576656E742D636F6E74726FAC
:1048E0006C2E6300024800787047014908707047D9
:1048F0003CFF002082B0DFF80C0900788DF803003F
:10490000DFF804090088ADF80600DFF80009008828
:10491000ADF80400DFF8F80800788DF802000020F8
:10492000ADF800000120DFF8EC180870DFF8E808A7
:104930009DF803100170BDF806104180BDF8041009
:1049400081809DF802108171DFF8D0189DF8012058
:1049500001EBC20181609DF80010017301214173D8
:1049600002B07047DFF8AC0800787047DFF8A8188D
:1049700001EB0010407B00F001007047412818BF98
:10498000422803D0432818BF442801D10120704792
:1049900000207047412818BF422801D101207047EC
:1049A00000207047432818BF442801D101207047D8
:1049B00000207047F8B5044615461E46079B069A28
:1049C00000F077FA60B1042100F08CFD070007D0F9
:1049D0002046FFF72FFE324629462046B8478FE093
:1049E000F1BD2DE9F04383B004460D46160098460C
:1049F0001EBF0A9F002F5FEA08001ED0387800070C
:104A00004CBF402280220C9B7188307900F051FA13
:104A100098B1082100F066FD814670B13079FFF74A
:104A200009FE0B98019000974346324629462046DE
:104A3000C847BDE8F743FFF706BEBDE8F783F8B502
:104A400000F039F8D0B121000BD1022100F04AFD6D
:104A5000040013D02846FFF7EDFD31462846A04755
:104A60000BE0102100F03EFD070007D02846FFF7BD
:104A7000E1FD224631462846B84741E0F1BDF8B590
:104A800000F019F808B98620F2BD00278CB9202162
:104A900000F028FD04000CD02846FFF7CBFD099854
:104AA0000090089B079A31462846A0470746FFF723
:104AB000CAFD3846F2BD054616461A46069C2346F0
:104AC000F7E1F8B50446A5682078FFF7B3FD0026A6
:104AD00012E02868F6B2142111FB06F14718398854
:104AE000207800F049FF0121384600F0FBFC01006E
:104AF0001CBF20788847761C2979F0B28842E8D319
:104B0000BDE8F140FFF79FBD70B50024DFF80857FE
:104B1000DFF8006708E0FFF729FF20B1E4B205EBFA
:104B20000410FFF7CEFF641C3178E0B28842F2D364
:104B300070BD10B586B0002401948DF80800ADF862
:104B40000A108DF80C30ADF80E200898ADF8100062
:104B500000940023002201A902A800F094F8019813
:104B600006B010BD2DE9F04782460E46174698461E
:104B700097F80290089C20000CBFFD782546484617
:104B8000FFF708FF30B16A1ED2B23146504601F03D
:104B900032FB1FE04846FFF705FF30B1AA1E92B274
:104BA0003146504601F03FFB14E0B8F1000F06D14A
:104BB000200004D0F878844238BF89200BD3F978DC
:104BC0001EB9504601F042FC04E00A463146504608
:104BD00001F040FC0020BDE8F08710B5002301E0A3
:104BE000001D5B1C9CB28C4204D204889442F7D115
:104BF000408810BD002010BDDFF8C419401A0C21F8
:104C000090FBF1F082B20021DFF8B809E5E70288F5
:104C1000B2F57C4FA8BF00F002B80846ECE7DFF819
:104C2000A819401A142190FBF1F082B20021DFF89C
:104C30009C09D2E710B50C460188638899420DD1D2
:104C4000027B23791A4209D0B1F57C4F04DBFFF7D0
:104C5000E6FF2189884201D1012010BD002010BD4E
:104C600010B514460A88E3889A420AD10288B2F540
:104C70007C4F04DAFFF7CBFF2189884201D1012064
:104C800010BD002010BD2DE9FA4F83B004469346B5
:104C90000025002603E0C0884519ADB2761CDFF878
:104CA00074150978F0B2884280F0B880F6B231010C
:104CB000DFF864050844DFF86025515C22789142F2
:104CC0008068E8D100903046FFF750FE0028E5D01C
:104CD0004FF0000A05E0B8F80A004519ADB20AF134
:104CE000010A009909795FFA8AF08842D6D20098C1
:104CF00000685FFA8AFA142111FB0AF100EB01083F
:104D000021464046FFF796FF0028E4D04FF0000907
:104D100008E038793021084202D1F8782D18ADB278
:104D200009F10109B8F808101FFA89F08842D6D2B3
:104D3000D8F804001FFA89F90C2101FB09F1471882
:104D4000224639464046FFF78BFF0028E1D0039802
:104D500000B107603879800610D5DFF864080021BB
:104D600006E00279920602D5C278891889B20C3021
:104D7000B842F6D3DFF85808461802E0DFF85408C6
:104D800046190E9D28001DD0DA4639464046FFF7E9
:104D90003EFF02463B886188207800F0E9FD20B3A1
:104DA0003879C00630D5002D394640461FD0FFF770
:104DB0002EFF0346CDF800B03A466188207800F017
:104DC000ECFD2CE0BBF1000F08BF002027D0B2465D
:104DD0005E4639464046FFF71AFF3B880246618827
:104DE000207800F0C3FD0028DAD17E2017E0FFF71D
:104DF0000EFFF9780191CDF800B003463A4661887C
:104E0000207800F0C8FD0AE0BDF8100000902B46A5
:104E10003A4651463046FFF7A5FE00E0862005B031
:104E2000BDE8F08F2DE9F8450446884616469A46B7
:104E3000002503E0397B090616D46D1C2179E8B200
:104E400088421ED22068EDB2142111FB05F14718EB
:104E500038884045F1D1310006D0802EEAD0402E6E
:104E6000EBD1397B4906E8D5B0F57C4F07DB3846F6
:104E7000FFF7D5FE504518BF5FEA0A00DDD138467E
:104E800000E00020BDE8F28580B5134607E080B55C
:104E90001346402204E080B51346802200E0002241
:104EA00000F007F800B1012002BD80B500234022C8
:104EB000F6E770B50C4615461E4600F0A3F8FF282D
:104EC00001D1002070BD33462A462146DFF8484311
:104ED00004EB00108068BDE87040A3E770B50C4695
:104EE00015461E4600F090F828B933462A4621465A
:104EF000DFF82403EEE7002070BD1346402201E0F6
:104F00000022FAE72DE9F84F8046894692469B46F3
:104F10000026FFF7CEFF08B9FF201AE00027DFF8D0
:104F2000F842DFF8F05200E07F1C2978F8B288429E
:104F30000ED2FFB23801205C404509D05B46524694
:104F40004946FFF7CBFF0028EED0761CF6B2EBE720
:104F50003046BDE8F28F30B50022DFF8BC3200E009
:104F6000521CDFF8B0522D78D4B2AC420CD2D2B27F
:104F700014011D5D8542F3D10D0003D01C44647BF8
:104F8000E407EDD5104630BDFF2030BD80B50021CF
:104F9000FFF7E1FFFF2801D1002002BDBDE802407C
:104FA000E4E470B504460E460021FFF7D4FFFF2865
:104FB00001D1002070BD984901EB0015687B00F01D
:104FC0000101320014BF40F0010000206873B142BB
:104FD00016D086B12846FFF774FD11E00068F6B2DE
:104FE000142111FB06F10844017BCA0901882046FF
:104FF000FFF706FB761CA8680279F1B29142EDD367
:10500000012070BD0121A6E70021A4E7824900012B
:10501000085C704738B50C46FFF7F4FF01460020E6
:10502000FF291FBF7C4A02EB01118968002916D0B5
:10503000002203E01B0648BF2846521C0D79D3B25C
:10504000AB420BD20B68D2B2142515FB02F52B44F0
:105050001B7B451C002CEDD05B06ECE7C0B232BDDB
:10506000F8B50C461546FFF7CDFF01460022FF2993
:105070001DD0002301E0521C5B1C674800EB0110AF
:1050800080680779DEB2BE4211D20068DBB2142616
:1050900016FB03F63044067B2F0002D0760602D4BE
:1050A000EAE73606E8D5D6B2A642E4D1F2BD002042
:1050B000F2BD002109E010B50446012100F005F819
:1050C0002046BDE8104001F020BA2DE9F34F87B02B
:1050D00001F0E5FA06904F480078059000249DF80D
:1050E0001C000190DFF8308100E0641CE4B20599F7
:1050F0008C427BDA0199FF2907D09DF81C00FFF74D
:1051000081FF0446FF2C06D177E008EB0410007BFA
:1051100006998842E9D14FF0000A4FEA041901E0EC
:105120000AF1010A08EB0900806802795FFA8AF146
:10513000914257D200685FFA8AFA142111FB0AF1F2
:1051400045182889B0F5967FC8BF01F083FB00267B
:1051500013E00120009000235A46002102A8FFF727
:1051600092FD9DF8200038B13B46BDF80A2018F8A2
:105170000910584600F0EFF8761C2989B0B2884231
:10518000CED26868B6B20C21714347183879C00690
:10519000F2D418F809008DF808002888ADF80A0044
:1051A000387940064CBF802040208DF80C003888AC
:1051B000ADF80E0039462846FFF729FDADF810007E
:1051C000F8783979490706D5D7F808B00328C0DB45
:1051D000DBF800B0BDE70328B4BF07F1080BD7F830
:1051E00008B0B6E70198FF283FF47FAF9DF8200094
:1051F00018B99DF81C0000F013F809B0BDE8F08F55
:1052000000000000F44A0400222D0400C04A0400FB
:10521000F54A04003BFF00204CA70020E4A7030050
:105220003EB5044601F03BFA054601237F222821C2
:1052300000F08AF800F084F84FF4004200F087F89C
:1052400001237F22292100F07FF800F079F848F24D
:10525000010200F07CF801237F222A2100F074F87B
:1052600000F06EF84EF2050200F071F801237F2283
:105270002B2100F069F800F063F84EF2060200F00E
:1052800066F802237F222C2100F05EF82120009096
:1052900001AB4EF2070200F05AF801237F222D21C4
:1052A00000F052F800F04CF84EF2080200F04FF80F
:1052B00001237F222E2100F047F800F041F84EF242
:1052C000090200F044F80120FFF7CAF9012C03D0CD
:1052D000FF2C08BFA84232D101237F22242100F0F5
:1052E00033F83020009001AB00224FF4A06100F0B1
:1052F0002FF802237F22252100F026F8312000908C
:1053000001AB01224FF4A06100F022F808237F22B4
:10531000262100F019F8F020009001AB10224FF484
:10532000A06100F015F801237F22272100F00CF87E
:1053300000F006F811224FF4A06100F009F837BD23
:105340002020009001AB704701A801F08ABB00212A
:10535000012001F04ABCF0B583B004460D46164664
:105360001F463879800740F1B5800021CDE9001152
:1053700004B96C4630006FD13888B0F5004F0AD1BF
:1053800000F0ADF838B93879400604D400F0A3F83D
:10539000282001F094FB388848F2010188420AD1A4
:1053A00000F09DF838B93879400604D400F093F83D
:1053B000292001F084FB38884EF2050188420AD189
:1053C00000F08DF838B93879400604D400F083F83D
:1053D0002A2001F074FB38884EF2060188420AD177
:1053E00000F07DF838B93879400604D400F073F83D
:1053F0002B2001F064FB38884EF2070188420BD164
:1054000000F06DF840B93879400605D402232246F1
:105410007F212C2001F053FB38884EF2080188428E
:105420000AD100F05CF838B93879400604D400F0AD
:1054300052F82D2001F043FB38884EF209018842D2
:105440000AD100F04CF838B93879400604D400F09D
:1054500042F82E2001F033FB012D08BFB6F5A06FF6
:1054600038D1388850B900F03AF838B93879400660
:1054700004D400F030F8242001F021FB3888012802
:105480000BD100F02CF840B93879400605D402233E
:1054900022467F21252001F012FB388810280BD1ED
:1054A00000F01DF840B93879400605D4082322469B
:1054B0007F21262001F003FB388811280AD100F053
:1054C0000EF838B93879400604D400F004F82720E3
:1054D00001F0F5FAF7BD012322467F2170473846D7
:1054E000FFF78ABB30B501220023047B0C4205D1B3
:1054F000002030BD144218BF5B1C5200D5B28D4253
:10550000F8D30069DBB250F8230030BD3249401AAD
:105510008003020C00213148FFF75FBB2DE9FE4FED
:105520000C4600254FF0010A0028607D07D00100DD
:1055300008BF022707D0012804D1012703E008B9DA
:10554000082700E00427A846DDF83490DDF83CB0D9
:10555000214800EB88063088BDF80410884227D126
:10556000F078384224D0B0789DF8381088421FD3A4
:10557000E07BF178C90607D5D0B13046FFF7C6FF0A
:10558000218A814201D013E090B9AB4503D0BDF828
:105590003000854202DB4FF0000A0EE0B07802993D
:1055A0004855B9F80000401CA9F800006D1CADB2C8
:1055B00008F10108B8F10A0FCADB5046BDE8FE8FBA
:1055C000BCA40300F0A7030008A70300ECA7030096
:1055D000E4A300205CA7002090A40300B8A403006B
:1055E000EFF31180302181F31188704780F3118827
:1055F000704770477FB500F011F818B900F015F842
:1056000001F050FD04B070BD7FB500F007F818B987
:1056100000F00BF801F05DFD04B070BD04460846D3
:1056200015461E4602A901F051BE08990998334655
:105630000091029901902A462046704780B500F0FB
:105640000DF880B202BD80B500F008F8FA21B0FB79
:10565000F1F080B202BD000000BF0000E0B501F033
:1056600017FE6A4601F063FE18B14C2128A000F035
:1056700059F8DDE9000103B000BD000080B501F07C
:10568000D6FF01F0DFFC20B15FF0570120A000F051
:1056900049F8002002BD0120104908707047FEB58E
:1056A00004462168002501B91CE000F00CF808B19F
:1056B00000F002F8012019E001950095216800230F
:1056C0003A46301D96E7054E3570054F002301958B
:1056D00000933A46301D97E70000000008F90020CB
:1056E0009756000000F03BF90020FEBD02F076F96D
:1056F000307840B92146301D01F05AFD20688525DB
:1057000001F0F9FD01E00020307020602846FEBD68
:1057100073797374656D2D74696D65722E63000005
:1057200042DE704738B504460D4601F093F802F0AA
:105730006FF92946204602F070F92B462246694946
:10574000012002F0CCF929462046BDE83440E7E7C5
:105750002DE9F0474FF42068634D2E1D6348016822
:105760007165016AB16562490A68F2654968316626
:10577000416A7166816AB166C16AF166016B31671F
:10578000806B706796F8340040074CBFF46BB46BC5
:10579000274602F0D5F9014631650022F26405F191
:1057A0009003DFF850C1DFF850E1544A844224BF2F
:1057B000A2F1200AA24518D3A0693064E469746498
:1057C000746DC4F30804062C13D1704511D36045E1
:1057D0000FD200884DF64264A0420AD1306858606A
:1057E0007068986040F2017803E0002737647764BE
:1057F00007464348814202D2014600E0091D08469F
:10580000904203D20C68B4F1CD3FF7D03D49081A5D
:10581000B0640020002105EB8004E167401C0628ED
:10582000F9D3002003E0C0B205EB8004E1679742A2
:1058300023D252F8041D7145F9D36145F7D2CC0744
:10584000F5D5002405EB8409D9F87C90894502D070
:10585000641C062CF6D3062CE9D1002814BF401E88
:105860000520E0E7B16F002405EB8402D2F88070D8
:10587000D767641C052CF7D319600146481EC9B2CE
:105880000029EFD1706DC0F30800032810D0042860
:1058900011D0052812D0062813D00C2817D03B2889
:1058A00018D119480068800719D540F2025816E04F
:1058B00040F6012813E040F6022810E040F60328E5
:1058C0000DE0B8F5206F0AD140F6042807E040F655
:1058D000052804E018B14D2838BF40F60728404697
:1058E000BDE8F08780CB03000000002004ED00E05D
:1058F00000E300E0A49C03006C440000009300203F
:105900009C000020009300201880014AEFF31080D3
:10591000C00706D4EFF3118030288041C043C00F88
:105920007047012070477047704770477047704755
:105930007047704770477047704700207047704746
:105940000020704770477047002070470020704764
:105950007047704770477047704770477047002026
:1059600080F311887047704701207047012070470D
:105970000120704770477047704700207047002033
:1059800070470020704700207047002070470020BB
:105990007047002070470120704701207047B520F4
:1059A000704700207047002070470020704700209B
:1059B0007047704700207047B5207047002070473F
:1059C00070477047842070477047002070477047C9
:1059D000704770470020704700207047704770473D
:1059E00070477047012070470020704703480068E7
:1059F0000078012808BF022070470000E0A90020BD
:105A0000704700207047012181814FF6FE71C181EE
:105A100001210161002101700120704770470020C1
:105A20007047002070470020704700207047704783
:105A3000B520704700207047002070470020704755
:105A4000704770477047B520704770477047704780
:105A500000207047704770477047704780B5FFF768
:105A6000D1FAFF2804D018B9DFF8B808007802BDD1
:105A7000002002BDF0B5044600260027059D092D33
:105A800002D300200021F0BDB4460FE03F0247EAF8
:105A900016675FFA8CFCA5EB0C00204410F8010C93
:105AA000002110EB06264F410CF1010C5FFA8CF03F
:105AB000A842EBD39F4206D828BF964203D2901B40
:105AC00063EB0701F0BDB01A67EB0301F0BD10B541
:105AD0000168DFF854280B8813804B88538049797C
:105AE00011710168097951714FF4AA51D18001688F
:105AF0008979890644BF4FF4AB51D180DFF82C1867
:105B00000A7883693BB9C088DFF82438188002F02E
:105B1000FD00087010BD42F002020A70DFF8144860
:105B200016228169204600F095FC0020207010BDEF
:105B300080B50020FEF779FDFF20FFF7BAFAFEF7E7
:105B400082FDFEF70FFF01220146DFF8D80702F0C1
:105B500001F8DFF8D437DFF8E0275221DFF8DC075F
:105B600002F0E4F8FEF7B6FC02F04EF902F02DFB6D
:105B700003F056F803F056F8BDE80140FEF7C4BF45
:105B8000704780B503F04FF920B904F00FFE08B953
:105B900002F0ACFDFFF74BFFBDE80140FFF756BF39
:105BA00030B500234FF6FF72DFF8944701E05B1C2D
:105BB0009BB234F8335095420DD08542F7D1B0F501
:105BC0007C4F06DB04EBC3056D888D4201D00D00D0
:105BD000EDD1184630BD104630BD10B50446FFF774
:105BE000DFFF0146DFF85C0700884FF6FF72914245
:105BF00003D12246DFF8501706E0DFF8442702EB16
:105C0000C1014A68DFF84417BDE8104004F0E6BE61
:105C100010B582B00446DFF83C07007800283CD07D
:105C200004F0B4FF0246DFF83017042004F0D6FE7B
:105C30002068418800914379A289DFF82017042069
:105C400004F0CCFE042004F087FE20B1218A2068F5
:105C50004088FFF7C2FFE07B28B1228ADFF80017F7
:105C6000042004F0BBFEE07C0090A37CA0680278D6
:105C7000DFF8F016042004F0B1FE207D0123A18995
:105C80000A1A92B2A1680144042004F098FFBBA153
:105C90000420BDE81C4004F09BBE13BDF8B50446CB
:105CA00020684079FFF7AEF92268DFF8BC56FF287C
:105CB0000BD100F05CF8DFF8B416022004F08EFE81
:105CC00020684279DFF8A81640E0DFF8A81601EB5B
:105CD0000010DFF8A466017B237F994208D000F012
:105CE00046F8DFF8983600F048F8227FADA12DE0A5
:105CF00040881188DFF8887688420FD04FF6FF730E
:105D0000994202D1B0F5004F08DB00F030F8DFF81F
:105D1000743600F032F82068028816E020790228F4
:105D200018BF032817D111895079FFF732FE90B9B7
:105D3000E37C206842882946022004F04FFEDFF809
:105D4000483600F01AF8206802893946022004F02B
:105D50003FFE0020F2BDA07B0028204603D0BDE816
:105D6000F24004F0CBBFBDE8F24004F0FFBFE37C9B
:105D700052882946022004F031BE2068427931461B
:105D8000022004F02BBE70B582B014461A46237868
:105D90005B074CBF05230323DFF8F0559A4205D279
:105DA000009313462A46DFF8E81533E0089E30607A
:105DB00031710698F080B460B281207800F0010063
:105DC000B0732078800800F00100F0732078C008DC
:105DD00000F00100707501203075F07B30B10121B9
:105DE000204605F0A2FA317D891C31753082307D64
:105DF000411C3175205CB074481C3075C9B2615CBF
:105E0000F174B389C2B2934209D2C0B200902A465B
:105E1000DFF88015042004F0DBFD002076BD079834
:105E2000B06100F03CFC3077012076BD2DE9FE43E7
:105E30000F460025DFF86065DFF8601591EC080B70
:105E400086EC080BDFF808850B9C029601940A99F2
:105E500000913946FFF797FF002876D0C8F8006018
:105E6000B07CDFF83C1508703046FFF7D1FE3046B5
:105E7000FFF72DFE304600F049FB98BBA4BB042F72
:105E800018BF052F03D0022F18BF032F01D1012205
:105E900000E000223068F188019141880091038878
:105EA0000121F07C00F054F908B33068817989064B
:105EB0001DD44288DFF8EC14022004F089FDDFF8DD
:105EC000E854012028700121304600F03FF938B134
:105ED0000346DFF8D824DFF8D814022004F078FD58
:105EE00000202870012530E0207D80072DD5306806
:105EF0004079FF2825D10027DFF82C44FEF732FD3A
:105F0000F9B2814221D2F8B2FFF780F88146F8B2A7
:105F1000FEF72CFD98B1328A306841884846FEF77A
:105F2000B3FF60B13046FFF7D2FD306880F80590CE
:105F300084F804903046FFF7B1FE00B101257F1CC4
:105F4000DCE73046FFF7AAFE054605F069F91621A1
:105F5000DFF8E00305F010FA0020C8F8000028463A
:105F6000BDE8FE83DFF84C040178491C017001F0A4
:105F70007F007047DFF84014087070475D00000034
:105F800078B1DFF834140978012903D1018841F090
:105F9000400105E0022904D101884FF6BF7211408B
:105FA000018070472564000078B1DFF810140A788A
:105FB000012A04D1DFF8082412780A7001E0022ACD
:105FC00003D1017841F01001017070472DE9FE43C3
:105FD000DFF858432178CA0706D5DFF8E813022016
:105FE00004F0F6FC002068E0DFF864231268CE4D70
:105FF00072B1126893799B0603D5EB8843F02003B6
:10600000EB809279520603D5EA8842F04002EA809A
:10601000CA4E32785207DFF8882312784CBFF270EC
:106020007270C54F89070CD54FF049083246398840
:10603000C048FFF7C1FC8146207800F0FD002070C9
:106040001AE0BB490C884FF6FC718C420ADA4FF01B
:106050005508019000963B882A462146002005F00D
:10606000CAFA08E04FF04208009033463A882946C1
:10607000204605F0A7FA8146A87980064CBFD24C8D
:1060800045A404F083FD0294CDF80490CDF800807F
:10609000CE4B0246CE49022004F09AFCCD490220A4
:1060A00004F09CFC01233A883146022004F087FD6D
:1060B0009BA1022004F08CFC4846BDE8FE83002032
:1060C00084E70A460146A248006801E00021F8E79B
:1060D00070B504460E4615462079010018BF012808
:1060E0000BD1A0680078C00601D5300005D0A07B98
:1060F000002804BFE07C0B2801D1002070BD0020E7
:106100008D490880607D00280CBF08200020E17BBD
:1061100011B905F09AF806E040F0040005F095F892
:10612000208A05F0A1F8A07C05F08FF80B2005F07F
:106130008CF8E07C05F089F8304605F086F82046BA
:10614000FFF7C5FC2846BDE870403FE70022BFE7E7
:1061500070B504461D46A0480078934B012801D035
:106160001E7816B10020187070BD82F001020A433B
:1061700001D1002070BD00281EBF04984FF6574281
:10618000904206D023460A4601462846FFF7F5FB13
:1061900000B1012070BD00000000000038B54FF6CE
:1061A000FD735224D288950648BF4924550544BF43
:1061B000083CE4B2150544BF083CE4B2120444BFF5
:1061C000A41EE4B2032810D8DFE800F00204080D92
:1061D0000B460AE0C8B205F025FE02E0C8B206F0A0
:1061E0004BF8034601E0641EE4B21846FFF7E2FBF9
:1061F000201AC0B232BDB0B504460D0017460EBF1E
:1062000000202878FF2801D12070B0BD284605F075
:1062100096F8874288BF07463A46691C601C00F022
:1062200019F92770B0BDF8B504460D00164603D124
:10623000002060702070F1BD2878FF2802BF6878C8
:10624000FF2820700DD0284605F07EF80746BE4294
:10625000B8BF37463A46A91CA01C00F0FBF82770CF
:1062600038126070F1BDF0B5541E002B37D0052AEE
:1062700048DA0025002600230CE0571EFF1AFF0015
:106280000CFA07FC4CEA050511F80EC00CFA07F7EA
:106290003E435B1CDFB2974209D2DBB2A4EB030E94
:1062A00000280CBF4FF0000C10F80EC0E5E7042AE0
:1062B0000FDAD000401E0121D2009140494245FA38
:1062C00000F2D20748BF0D4346FA00F2D00748BF9C
:1062D0000E43AE420FDBB54214DA10E05B1CDDB2B8
:1062E00095420FD2DBB2E51A00280CBF0026465DAE
:1062F0004D5DB54201DA0120F0BDAE42EEDA4FF05D
:10630000FF30F0BD0020F0BD0021344A01E0891CBF
:10631000C9B2535C8342FAD35018407870470000EA
:106320005D00000040FF002080A9002045FF002004
:106330008AF9002068AA0020FAF900208CA9002020
:1063400018B603008AFB002014B403002CB4030029
:1063500064AA0020C89E002034B403003CB40300AB
:106360005CB4030068B4030088B40300A8B403005D
:10637000C4B403004CA70020CCB40300F4B4030061
:1063800004B50300FCB403000CB5030030B50300F2
:1063900014B5030038B5030044AA002060B603001A
:1063A000CC9E002054B5030041FF0020A4B503009B
:1063B0007CB50300CD9E002042FF002043FF00205B
:1063C00044FF0020ACB50300F8B50300F0B50300AE
:1063D000D4B5030008B60300CB9E002080B60300AE
:1063E000283808288041C00F704740B11C280CD0C5
:1063F0001D280DD01E2818BF1F2806D00AE0A1F1C5
:106400000B00102806D2002070471B29FBDB01E09F
:106410000929F8DB8A20704710F0E00011D08028AD
:1064200006D0A02806D0C02806D0E02806D007E075
:106430001C2070471D2070471E2070471F2070478A
:10644000FF20704700F01F0070477047002201F0E6
:1064500085BB704781423ABF5318984206F0B6B8E0
:106460008018990707D0521E24BF13F8011D00F8A9
:10647000011DF6D8704781071CD1103A07D330B4FC
:1064800033E93210103A20E93210F9D230BC103220
:10649000121F24BF53F8041D40F8041DF8D838BF5C
:1064A000121D521E24BF13F8011D00F8011DF8D85B
:1064B000704700BF083A07D333E90210083A40F8A2
:1064C00004CD40F8041DF7D20832EAE780B506F0A3
:1064D000B9F8FFF72DFBBDE8014008F0ABBB80B574
:1064E000FFF76EFAFFF74CFB08F09AFC08F0E6FCA9
:1064F000BDE8014002F076BB80B5FFF762FA08F014
:10650000F2FCBDE8014008F01ABD704708F056BD26
:1065100008F0E4BE0020704738B504460D46FFF78A
:1065200099FA29462046BDE8344009F06EB8FFF7D5
:106530007ABAFFF783BA70472DE9F0427D4E00200A
:1065400030707D4C20683821382504F015FF3378F1
:106550007A49087822686B43D05430782168002249
:106560006843084442703078216868430844827068
:1065700009F0CCF8327821686A430A44107209F0B5
:10658000C5F8327821686A430A445072317820682D
:106590006B4A6943014410786A4AC87033782168AD
:1065A00017686B43C818476167490A7802763078E4
:1065B000D4F800C0654A074615FB07F312680CEBD8
:1065C0000301CA61624AD2F800902C22574309EBBA
:1065D00007020CF13407FA5009F0AAF83078216864
:1065E00015FB00F501F1340251594A680968BDE80C
:1065F000F04209F002B980B592B06A46002100204D
:1066000009F063FA08B1012018E05249524A0A9190
:106610000B925249524A0C910D9210915148524A94
:1066200052490990524B0F9211910E936A460021E4
:10663000002009F06FF900B10120C0B213B000BD15
:1066400080B5002000F01AF828B1002000F005F80D
:1066500008B1002002BDFF2002BD364A364813783B
:10666000016838204343C818807802281CBF1128CD
:10667000432801D101207047002070472D4A2E4841
:106680001378016838204343C818407801281CBF9C
:106690000228032801D10120704700207047002004
:1066A00070470020704770470020704701207047F6
:1066B000704700207047704770470020704780B5D2
:1066C00000F020F820B10020FFF7D8FF00B1012032
:1066D00002BD80B500F016F808B1002002BDFF2011
:1066E00002BD10B5044600F00DF848B100F019F8ED
:1066F0004078012818BF022802D10CB9012010BD32
:10670000002010BD0020A8E780B5FFF7FBFF30B1E7
:1067100000F007F84178032901DA002002BDFF20CC
:1067200002BD044A04481378016838204343C8185E
:1067300070470000DBFF0020BC9A0020F19E002083
:10674000F29E0020C49A0020E99E0020C89A0020F2
:10675000C09A002033CE01003359000049CF010018
:1067600031BC02004DCD0100977B01003DB5010019
:1067700041D101000021002009F0A3BA002818BF70
:1067800009F069BD70470AF094B90AF01CB833B536
:1067900085B005468DF8042003F062FF04462846C4
:1067A00003F06EFF7CB10028BDF818000FD104F093
:1067B000C3F8FF288DF8000004BF00218DF80010F9
:1067C000CDF808D016E0A8B106A8029012E004F0B7
:1067D000B3F8FF288DF8000003AA04BF00218DF84C
:1067E00000109DF80000BDF8181002928DF80C0002
:1067F000ADF80E10DDE901010A460146284602F017
:1068000017FA07B030BD70470AF058B910B584B018
:1068100068461A491CC91CC001208DF800000D20D3
:106820008DF8060003208DF80700082124200AF0C7
:106830007DFA694612480AF02CFD4FF400601149B8
:1068400008600221104A11601049086002201049B6
:1068500008601FBD0A480AF00BBDA52803D100211E
:1068600007480AF0F3BC70470A48006800F00100CE
:106870007047094800680028FBD170477CD80300A6
:106880000080014A84E200E018A0014A04E100E02F
:106890001C90014A0480014A2480014A2DE9F04FEE
:1068A00089B00AF028FD08B1C620CBE0DFF8AC4281
:1068B000DFF8AC62316820680CF0C7F805002CD016
:1068C00032685168106892691268904704A831686C
:1068D000896989688847022031688969C968884759
:1068E000002506E0006802FB0500096988476D1C69
:1068F000EDB230688169059A4368B3FBF2F39D42BB
:10690000F0D30020C96888473068806940688047B4
:10691000316820680CF099F805460026DFF84492AB
:10692000DFF84482002D64D1DFF84002805DF0B1D1
:10693000DFF83C0250F8267001AB6A463946206801
:106940000CF087FA404507D0002852D10098012862
:106950004FD0394600F07AF8DFF8180250F82600D8
:106960000268394620680CF0B8F9054641E0002776
:10697000DFF8FC0150F826A0DFF8FC01805D8DF8FF
:10698000080005E0019819F8061088420FD17F1C15
:106990009DF80800874216DA00F05BF8404506D003
:1069A0000028F4D100980028ECD000F04EF819F837
:1069B0000630DFF8C00150F82620594620680CF058
:1069C00006F90500E3D0DFF8B401805D88B19DF8D9
:1069D0000870DFF89C0150F826A000E07F1C7F2F94
:1069E00007D200F036F8404503D000F02EF805003D
:1069F000F4D0761C3A2E95DBDFF884011DB9012115
:106A00000170002515E000210170002DF9D0DFF89C
:106A100074012D1A08D06D1E08D0AD1E08D02D1F90
:106A20000CBFC125C52504E0C22502E0C32500E056
:106A3000C4252068007C20B1D321DFF84C01FEF78B
:106A400071FE284609B0BDE8F08F594620680CF069
:106A500045BA07EB0A0B01AB6A46594620680CF0B1
:106A6000F8B970B515463A2920DADFF81421127802
:106A700082B1DFF8E8201468DFF8F460DFF8EC207A
:106A8000525C42B1024656F8211020460CF06AF9D9
:106A900000B144E070BD7F2D08BF0025024656F8C6
:106AA0002100411920460CF0D2F8F1E7FF2903D963
:106AB000BDE870400CF0C1BA40F2011133E070B58E
:106AC00015461A463A2820DADFF8B4301B787BB135
:106AD000224B1C68DFF89860DFF890301B5C43B1F4
:106AE0002A6856F8201020460CF0F7F800B116E09E
:106AF00070BD7F2908BF002113462A4656F82000A2
:106B0000411820460CF063F8F0E7FF2804D9294625
:106B1000BDE870400CF0DCBA4FF49A7103E0BDE8B8
:106B200070400CF04CBBDFF86000BDE87040FEF731
:106B3000F9BDDFF84C10097801B9704780B5002223
:106B4000DFF82C1051F82010044800680CF03EF9D2
:106B500018B1BDE802400CF032BB01BD74980020B2
:106B600094980020BC1304000BE000F044130400D0
:106B70005C120400A8160400F8130400801304003B
:106B80008AFF002001E000F024DA03002DE9F0473D
:106B900086B006468A46904699460E9C0F9F109DE9
:106BA000029501970094FEF7DFFE18B1022803D08A
:106BB00002D310E001200EE00CBF012000200021D4
:106BC000049103900295019700944B46424651462A
:106BD000304600F061F906B0BDE8F08710B586B028
:106BE00000F019F80024009411E010B586B000F010
:106BF00003F8009340230AE0002404940124039442
:106C0000089C02940193002370470093802300F0B6
:106C100043F906B010BD0024049401240394099C98
:106C20000294089C0194704710B586B00124049426
:106C3000002403940A9C0294099C0194089C0094EB
:106C4000E5E71FB5089C0394079C0294069C0194F9
:106C5000002400940CE01FB500F001F806E00024C9
:106C60000394069C029401930023704700934023F1
:106C700000F0C9F904B010BD2DE9F44F84B0064608
:106C80008A461D460024A346D946DDF8388043468F
:106C90002A46FEF70EF907008DF80060ADF802A055
:106CA0008DF80450BDF81000ADF80600ADF808806E
:106CB00049D069463846FDF7BDFF002843D000257E
:106CC000DDF83C80DDF840A005E004F0BEFA641C6D
:106CD00009F101096D1C3989A8B288422BD2786864
:106CE000ADB20C21694346183888B0F57C4F09DAFB
:106CF0003088ADF806006A4631463846FDF7B0FFE9
:106D00000028E7D03088BDF81020904238BF0BF142
:106D1000010BDDD3A1B24145DAD204F0A5FAB07877
:106D200004F093FA5FEA0A00D1D03079C0074CBF73
:106D300007200520C9E71FFA8BF111FA84F01FFA2A
:106D400089F1884201D1012000E0002005B0BDE8B2
:106D5000F08F2DE9F047C4B00025DFF8309100E056
:106D60006D1CFDF7FFFDE9B281424CD20027EDB268
:106D70004FEA051A00E07F1C09EB0A0080680279DF
:106D8000F9B29142ECD20068FFB2142111FB07F175
:106D900000EB0108002407E0B078FDF703FE10B116
:106DA00004A804F0D1FA641CB8F80810A0B2884214
:106DB000E1D2D8F80400A4B20C2161434618FFF7D1
:106DC00049FD31464046FDF722FF317949064CBF67
:106DD0008023402300210391FF21029104A9019106
:106DE00000903288B8F8001019F80A0000F00BF98A
:106DF0008628D8D0B078FDF7CDFD0028CCD004A8E7
:106E000004F09DFACFE744B0BDE8F08770B5C6B096
:106E100015464B9C052C2FDB04AA0392FF220292FD
:106E200005AA01924A9A00922A4600F0ECF8060060
:106E300024D1FF2205A99DF810000CF0D1F906001D
:106E40001AD0201FB04217DB284604F00DFA0020AC
:106E500004F0FBF99DF8100004F0F7F90C4C2588BC
:106E6000C5F152018E4207DA324605A9094B58197D
:106E7000FFF7F0FA7019208046B070BD284604F084
:106E8000F3F9304604F0E1F9F6E700004CA70020E2
:106E9000FAF900208CA900202DE9F04F89B0814635
:106EA0008A4693469846002004908DF81490ADF8D9
:106EB00016A08DF81880ADF81AB0129CADF81C40E1
:106EC00000900023002204A905A8FDF7DCFE049829
:106ED00008B986208AE0159868B99DF85000049991
:106EE0008978884218BF8D20F4D104980079C007B2
:106EF00058BF88207AD5139D04980079400725D57E
:106F000004988068406802900498806880680190C6
:106F100004988078FFF764FA06460498C0788DF8E4
:106F2000000003283346024629461DDA02A8FFF76F
:106F30009AF9074633469DF80020294601A8FFF735
:106F400092F9012F18BF10F1010F1CD016980028DC
:106F50004BD14FF6FF722946049880780CF040F927
:106F6000060012D1012041E00298FFF77CF90128C8
:106F700009D033469DF8002029460198FFF773F9A0
:106F800010F1010FE2D1872030E00395C0B200F08C
:106F900030F8FEF744FD010028D10395F0B200F06F
:106FA00028F8FDF76CFD010020D10120009000239E
:106FB0002A46002105A8FDF766FE010016D1049BB4
:106FC000524649462846FEF7C6F9029500F012F8E7
:106FD00001F0AAFB0395F6B2029600F00BF8FEF75B
:106FE0001DFD00F00AF8FDF72AFD002009B0BDE8FC
:106FF000F08F02909DF850000190009443465A464D
:1070000051464846704710B586B0002401948DF86B
:107010000800ADF80A108DF80C30ADF80E20089875
:10702000ADF8100000940A9B099A01A902A8FDF787
:107030002AFE010004D10B9911B1019A92780A70CD
:1070400006B010BD38B5FEF7CBFA0446DFF85C5544
:10705000287828BBDFF858150860DFF85815086055
:10706000DFF8541508800CF0E7F801200CF044F923
:107070000CF0A0F90200DFF84405026004D12046BC
:10708000FEF7B4FA232032BDDFF8340540F2E731D1
:1070900000230CF09BF9DFF82C1508600120287004
:1070A000204681E0F0B585B000F028F80CB9222028
:1070B0000DE003A9204600F05FF89DF80C0008B130
:1070C000032004E000F013F8002200F029F805B0D6
:1070D000F0BDFEB504000D4616461F4601D1222024
:1070E000FEBD00F020F800F014F800220EE00B982E
:1070F00002900A98019000973346704704460D4667
:1071000016461F4600208DF80C00704700F008F866
:10711000FEBD099802900898019000973346704789
:107120002946204615E2F8B5044600250CB9222070
:10713000F2BDFEF755FA064600F0F9F9DFF8707473
:107140003868A04208BF0125204600F0B7F90400C6
:1071500003D000F0B4F82046F2BD38681DB118B174
:1071600000F0C7F903E010B902200CF0D2F8304665
:10717000FEF73CFA0020F2BD38B504000D4618BFFA
:10718000002D01D1222032BD00202870FEF728FA00
:10719000DFF81C14096800E0896829B12A781AB957
:1071A000A142F9D101212970FEF720FA002032BD59
:1071B00070B506000C4618BF002C01D1222070BD0E
:1071C000FEF70EFA054600F0B2F970692060DFF8AC
:1071D000E003006805E0B0B1216842695118216000
:1071E0008068B042F7D10CF05CF8DFF8C863316812
:1071F000401A216888420AD20CF053F82168081A14
:107200003168081804E000F030F8032070BD002059
:10721000206000F02AF8002070BDF8B507460C4643
:107220000026FEF7DDF90546DFF88403006800E07C
:107230008068B0B141698E19C188B942F8D10CF0AB
:1072400030F8DFF870733968401AB04205D20CF09C
:1072500028F8301A39680E1800E000262660284603
:1072600086E700F002F81B20F2BD2846FEF7BEB903
:10727000DFF854030078704738B5FEF7B1F90446DB
:107280000CF00FF805462046FEF7B0F9284632BD4F
:1072900070B5FEF7A5F906460CF003F80546DFF8D1
:1072A0001803048801200CF048F818B10BF0F9FF1E
:1072B0000546641C00F003F82146284670BD3046A0
:1072C000FEF794B9DFF8F4020068704710B50C4679
:1072D000BC49096881420CD3B8490968A1FB000187
:1072E0004FF47A7200230CF071F8401C20600020EB
:1072F00010BD212010BD70B54FF47A71A1FB00457F
:10730000AE480668304600F067F900282046294656
:1073100007D0B6FA86F2C2F11F02BDE870400CF049
:10732000CDB832460023BDE870400CF04FB8F8B538
:107330001646A64AA64B994220D828BF90421DD295
:107340004FF47A72A2FB004502FB01559B48076887
:10735000384600F041F900282046294606D0B7FA01
:1073600087F2C2F11F020CF0A9F803E03A460023AD
:107370000CF02CF8C6E900010020F2BD2120F2BD7E
:107380002DE9F0470546DFF82882E8070AD58A4844
:107390000188491C018000F0CAF8D8F8000008B143
:1073A00000F0A7F8A80763D50BF07BFF0546002483
:1073B000A246804F38682E1A38E0314604463D60B8
:1073C0004269914209D3037994F804C0634538BFF8
:1073D0000446891A80680028F2D14846FEF706F96B
:1073E0006069A6EB000900206061FEF7F9F8064627
:1073F000204600F063F8FFF762FF206940B1FEF716
:10740000EFF806462169204600F034F8FFF757FFF1
:10741000E268100002D02168204690470AF1010A74
:107420000BF03FFF00EB09014E1B0546FEF7D8F8B5
:107430008146D8F8000010B141698E42BDD2BAF140
:10744000010F03BFE188022901210021614A117067
:1074500030B14169891B41613D6000F04AF802E0AA
:1074600002200BF056FF4846BDE8F047FEF7BEB8D5
:10747000BDE8F087F0B541614D4A1368D3B10024EF
:107480005D69A94206D22DB14E1B09D11E7907793B
:10749000BE4205D2491B41611C469B68002BEFD1BF
:1074A000002C14BFA06010601A0005D05C69611A3E
:1074B000596101E0106000228260F0BD00213C4A69
:1074C000136801E019469B68002B18BF8342F9D16D
:1074D000834201D0022070478368002914BF8B606B
:1074E0001360816819B14A694069801848610020B9
:1074F000704738B52E4C2F480068216849690D182F
:1075000002200BF0F9FE28460BF0D1FE2068002186
:10751000002283799B0701D5012205E0806818B11C
:10752000436959180229F4D32748027031BD10B5B8
:107530000BF0B7FE1E4909681E4A41B11368C31A11
:107540004C699C422EBFE31A001B00234B61106064
:1075500010BD70B504460E46154605982071049876
:1075600020600020A0602561E3600698E0804EB9AD
:1075700000206061E268100002D021682046904738
:107580008DB12E46FEF72CF80546FFF7D0FF3146A9
:107590002046FFF76FFF06480068A04208BFFFF7CC
:1075A000A8FFFFF762FE002070BD000083FF0020EF
:1075B000C4BA0020C8BA002008FF0020C0BA0020CA
:1075C00018FCFFFFCCBA002084FF0020F0A7C64BB8
:1075D0003789410085FF002020B1411E084201D1BA
:1075E0000120704700207047002807D4012100F0D7
:1075F0001F0291407E4A400942F8201070477D49A1
:1076000088420FBF4FF0FF314FF6FF717A4A904228
:107610000BD07A4B01D0984207D0904218BF9842C5
:1076200002D0774A904200D000210846704730B51A
:1076300089B074480FC86C4684E80F0072480FC8C0
:1076400004AC84E80F0002208DF81600694C04AAEF
:10765000002120460BF0C3FF2046FFF7D0FF206B30
:107660004FF6FF70E0610020ADF80200674D6946FB
:1076700020460BF060FF062009F022FABDF9021047
:107680004A1CB0FBF2F02860491CADF8021009B2A8
:10769000B1F5806F02DA5E498842E8D20F2009F026
:1076A0000FFA2A685B49B1FBF0F35B480021E3FB6A
:1076B00002015A4A00230BF089FE59490860002054
:1076C000584900F0BDF80620FFF78EFF40205649CC
:1076D0000860002009B030BD38B500F033F804462A
:1076E0000D4605E04FF6E85000F054F800F024F89D
:1076F0004FF6E95000218D42F4D88442F2D2A0B274
:1077000000F048F8002032BD38B500F01BF8044600
:107710000D4605E04FF6E85000F02BF800F00CF8AD
:107720004FF6E95000218D42F4D88442F2D2A0B243
:1077300000F01FF8002032BD3D484FF0FF31241803
:107740004D41704731490968334A0023E0FB01236A
:1077500010461946314A00230BF038BE3548006800
:10776000C00605D510203149086001202D49087058
:10777000704781B001000BD02F490A6892B20B68A4
:10778000ADF80030BDF800309B1A9BB28342F6D3AF
:1077900001B07047F8B5060028D0FDF721FF054677
:1077A000144C676A1E480068864238BF0646204669
:1077B000FFF725FF206BF01980B2A06610201B494F
:1077C0000860A06940F01000A0612846FDF70EFF98
:1077D0001A48144904E0026822F00402026030BF33
:1077E0000A78002AF7D0002000F02AF8F1BD000046
:1077F00080E200E00080044000C00440000005403A
:10780000004005403CCB03004CCB030058BB00209C
:1078100081841E0000B0710B20A1070040420F00C0
:107820005CBB002088FF002000E100E014A00440C1
:107830001802FFFF148004402480044010ED00E093
:107840000870A06920F01000A061704766480068C9
:10785000000C000465490860624908607047002810
:107860000FD44109624A52F8212000F01F00C240A3
:10787000D20706D55F4A52F82110C14001F001003D
:1078800070470020704780B50BF00CFF18B18C21B9
:107890005948FDF747FF59495948BDE804400BF0E6
:1078A000E2BF000070B504460D46564E20002ED1B2
:1078B00000204B490860012D08BF01200CF0EFFAB1
:1078C0006D1E032D45D8DFE805F00212141F0121BB
:1078D0000120FEF7C2F8FEF7C7FF307010B1A520F7
:1078E000FEF7BBFF0120BDE870400CF0D8BA0221C2
:1078F00000E004210120FEF7B0F8FEF7B5FF40B329
:10790000BDE87040FEF7B5BF052101201DE03078CD
:1079100018B101213C4809F099FC012C0CBF012051
:1079200000200CF0EEFA641E032C12D8DFE804F0FD
:107930000207090B01200CF0E4FA012104E0022106
:1079400002E0042100E005210020BDE87040FEF7C0
:1079500084B870BD38B5244841680068084084B2D6
:107960001F4D2C601A20FFF77AFF18B91920FFF776
:1079700076FF10B144F4803028600A20FFF76FFFD3
:1079800018B1286840F40030286031BD38B50024B3
:10799000012808BF01240CD0022814BF03280224A8
:1079A00007D0042808BF032403D0052808BF0CF023
:1079B00055FD164D2A46012120460BF020FF0CF004
:1079C0008FFDFDF7CCFF0BF099FE0CF08BFD2A46E6
:1079D00000212046BDE838400BF011BFD6E700007B
:1079E00070BB002074BB002020C4034020E403408F
:1079F00000E200E000E100E014DA0300E898002073
:107A000068BB002089FF00200080014A08DA0300DB
:107A1000302080F311887047704770477047704777
:107A20002DE9F04194B004460F4690461E460125CC
:107A3000012806D002281ED0202802D021281AD0E2
:107A400029E068462C49282204F0D0FD012C18BFFB
:107A5000202C08D0022C18BF212C04D0032C1CBFD2
:107A6000222C232C24D10197ADF81080012E14D1A3
:107A70004FF4805015E00AA82049242204F0B6FDF6
:107A800068460AA9242204F0B1FD1020ADF82400B4
:107A9000ADF82600DAE701200BE0022E03D14FF407
:107AA0004050ADF80E00694620460CF07AFA0546C3
:107AB000E8B214B0BDE8F0810CF040BB80B50CF02A
:107AC00048FBC0B202BD0CF08FBB80B50CF0A8FB28
:107AD000C0B202BD80B50CF03FFCC0B202BD0CB418
:107AE00080B502AB0A46014605480CF03CFD00207B
:107AF00002BC5DF80CFB0000B0BC0300D8BC030066
:107B0000D54201000CF078BC10B50446FFF780FFA9
:107B1000200A00280B484FF20F0108BF24020480FE
:107B20004180BFF35F8FBFF34F8F07490A68074853
:107B300002F4E06202430A60BFF34F8F00BFFDE72B
:107B400003487047000000200CED00E00400FA0537
:107B5000A089002062F30F2262F31F42401810F048
:107B6000030308D0C91A1FD3DB0748BF00F8012D53
:107B700028BF20F8022D130030B4144615461039E2
:107B800028BF20E93C00FAD8490728BF20E90C00AB
:107B900048BF40F8042D890028BF20F8022D48BFB7
:107BA00000F8012D30BC7047C91818BF00F8012D2E
:107BB000CB0728BF00F8012D704770472DE9F34F20
:107BC00081B0032903DB180008D0052904DA8649AF
:107BD000022002F0FDFEA4E042F0040201980270CF
:107BE0000124180005D001984370180A0199887083
:107BF0000324FEF7B7F901990855611C0C98019A06
:107C000089B250544C1C4FF0000ADDF838B008E03F
:107C10003A464146019B181904F0D8FC3C190AF178
:107C2000010A0D985FFA8AFA10F80A60002E7AD0DD
:107C30004FF000090025C846742E38DA5BF8048B33
:107C40004C2E1CBF532E622E14D15BF8047BBFB2A6
:107C50004C2E06D1B9464FF6FF70814535D002252E
:107C600033E0532E31D15FFA87F9B9F1FF0F2CD0F1
:107C700001252AE06C2E04D1404603F065FB871CE9
:107C800013E0732E04D1404603F059FB471C0CE06F
:107C9000A6F130000A2838BFA6F1300705D3A6F1B7
:107CA0004100072820D2A6F13707BFB20DE0002718
:107CB000752E08BF012506D0762E08BF022502D0FA
:107CC000782E0DD103255BF8049BBDF8080017FA48
:107CD00084F16918884214DA3346EA1943491DE0F1
:107CE000772E08BF0425EED032464149022002F02B
:107CF0006FFE16E0019901F80490641C4FEA1929FF
:107D00006D1EA4B2E9B20029F4D1002F87D0B8F1DA
:107D1000000F7FF47DAF33463A463649022002F029
:107D200057FE002000E0A0B2BDE8FE8F10B5324C37
:107D3000206032480180324802603248036010BD42
:107D400010B584B00C4607A90291069901910093E1
:107D5000134607E010B584B00C4606A902910193C2
:107D60000092002302462548018823480068FFF757
:107D700025FF234909680880224909684C804FF48F
:107D8000AA52CA8004B010BD03461B4802681C48B2
:107D9000006801881B48006803F057BC0020F3E727
:107DA000154802681648006801881648006803F004
:107DB000D0BB00B583B001920F4A12680092104AFE
:107DC000126813880F4A126803F015FC0EBD0022DA
:107DD000EFE70C48006870470A4A1368187110688A
:107DE0004171704700000000F4A7030038A80300A9
:107DF0001CA803006CA8030074A9002046F9002009
:107E000078A900207CA9002030E0C848007802282A
:107E100001DB012070470020704738B50446C34D90
:107E20002878A04203D02146FDF7D3FD2C7031BD48
:107E300010B5BF4C207860B900F018F80CF0C4FC05
:107E40000121217028B10188B1F5817F24BF007D17
:107E50002070207810BDB549097818B1022904DADC
:107E6000022001E0022900DBD7E7704738B5FFF7B1
:107E7000CCFF40BB0CF094FC0246AE49012002F05E
:107E8000A7FD0120FFF7E7FFAB4C2078FF281AD1B0
:107E90000CF09AFCB0B140880006400E00F00105DD
:107EA0002570FF221821A5480CF040FD012D0AD1B4
:107EB000FFF7BEFF052806DBCC21A148BDE8344012
:107EC000FDF730BC207031BD80B5FFF7CFFFBDE8B6
:107ED00001400CF079BCFF220C21984B11FB00F003
:107EE0001844FFF737BE2DE9F04F87B0804689462A
:107EF00016464FF0000B03A89249B1E80C10A0E819
:107F00000C10FFF7B3FFFFF793FF04468B4DDFF82C
:107F100028A29AF80000012855D1022C53DBB8FBA7
:107F2000F4F004FB108000285BD000200C214143BA
:107F30006A5812F1010F04D06918097A51184145A5
:107F400003D0401C0228F1DB03E0C0B20190FF28FF
:107F500005D140F22D117A48FDF7E4FB33E00C2106
:107F6000484302902F18387A211ACAB2B24234BF5D
:107F7000C9B2F1B20091009A49463818001D04F0C8
:107F800025FB0098361A387A00990818387200993B
:107F90008844C0B2A04213D10320FFF73EFF22461F
:107FA000391D029828580CF093FC00F0CDF8009889
:107FB00081440198C0B2FFF78EFF5FEA0B004DD1FC
:107FC000B0B200284AD09AF80000012809D1B8FBC5
:107FD000F4F004FB108020B14FF4AB715848FDF76A
:107FE000A1FB9AF80000012817D118FA86F0B0FB1F
:107FF000F4F104FB110282B104FB1104E4B2001B92
:1080000003902246B6B209EB06006142014404A87F
:1080100004F0DCFA8DF81440361BB0B248B10320EE
:10802000FFF7FBFEB2B2494640460CF051FC00F0AF
:108030008BF85FEA0B0011D1039810F1010F0DD0FE
:1080400000200C2111FB00F3E95811F1010F09D0B8
:10805000401CC0B20228F4DB4FF0010B584607B0B9
:10806000BDE8F08F0C2203A9E818FEF7F3F9F5E755
:1080700070B53148007801281DD1FFF7F7FE0024C4
:108080002E4D0C2000FB04F6A85910F1010F0FD063
:108090000320FFF7C2FEFFF7CBFE0246A819011D21
:1080A000A8590CF015FC064600F04FF8300003D13B
:1080B000641C022CE5DB002070BD70B504460D4643
:1080C0001646FFF7D3FE0420FFF7A7FE32462946E7
:1080D00020460CF009FC044600F037F8204670BD3D
:1080E0002DE9F04104460D46FFF7C0FE0520FFF7DD
:1080F00094FE294620460CF003FC804600F025F84B
:1081000000270E4E0C207843305810F1010F07D095
:10811000A04205D3291988423CBFF8B2FFF7DBFE25
:108120007F1C022FEEDB4046BDE8F0818BFF002074
:108130008CFF00202CDC0300D69E002078BB0020A2
:1081400020DC030040DC03008346022065E680B5A6
:10815000FFF78CFEBDE801400CF0DEBB10B582B02D
:10816000059C1CB1049C009403F067FA13BD10B584
:10817000DFF84C2A002305E0C45C6240DFF8444A83
:1081800062435B1C8B42F7DB104610BD10B50C46FA
:108190000F2807DA1423C2B230212046BDE8104070
:1081A000FEF75FBC10BD0F2805DA14230A46C1B2E2
:1081B0003020FEF784BC704780B5902804D10CF0C5
:1081C000D3FBBDE8014053E301BD30B585B00024C9
:1081D000DFF8F45900208DF8010069462046FFF7CA
:1081E000D5FF9DF8010058B19DF8000020B901208D
:1081F0001821614329440874641CA4B20F2CE9DBE4
:10820000DFF8C809048000F033FB05B030BDDFF8AB
:10821000BC09008870472DE9F04FCFB00024A0467C
:10822000A146A24600250CE0FAB2092A07D2002096
:10823000C6E90200194606F10800FEF70BF96D1CAD
:10824000ADB2DFF888090088854280F2D38005A9A5
:108250002846FFF79BFFFDF7FFF9DFF86C1918229E
:108260006A438E183168471A9DF814000028E6D139
:108270009DF815000100E2D0FCF788FE0028DED052
:10828000BDF820004FF47A7148438742D7D3307C41
:1082900040B9BDF822000100D1D04FF47A714843B3
:1082A0008742CCD304A80390FF2002900EA801902F
:1082B000BDF81C0000909DF81A30BDF81820BDF8DC
:1082C00016109DF81500FEF79EFE0028B7D19DF808
:1082D0001000FCF767FB0028B1D1FF220EA99DF822
:1082E00010000AF07DFF0700A9D0FA1CDCB16188FC
:1082F00020799DF81530834204BFBDF816308B42BB
:108300000FD19DF81A30DB094B4504BFBDF81C3076
:10831000434506D1DFF8B8381B88D2B2D21892454F
:1083200043DA00F071F8FFF754FD04469DF81A0097
:108330005FEAD01914BF002008208FA100910A2302
:10834000BDF81C20BDF81610FFF7FAFC9DF81500CB
:1083500020714FF4AA50E080BDF81C804FF0FF0A56
:108360004FF0000B0AA9584603F08CFF002802BF0B
:108370009DF829009DF81510884202BFBDF82A001B
:10838000BDF8161088420BD122469DF835109DF895
:108390002800FDF703FF52468246924588BF924669
:1083A0000BF1010BBBF10C0FDCDBBDF8180002F088
:1083B0005BFF9DF8100002F048FF39460EA802F05E
:1083C00084FF00203074FDF747F9306000200090F2
:1083D0000EAB9DF81000412818BF42287FF424AF4F
:1083E000791EC9B20DF13900FFF7C1FE00906B464E
:1083F00004221CE71CB16188207900F005F800F028
:1084000037FA4FB0BDE8F08F10B50C46FDF726FBEC
:1084100008B9032C0BD1DFF8BC07FFF7B5FCB42873
:1084200008BFFFF7BBFCBDE81040FFF7B9BC10BDAB
:108430002DE9F04F87B00446277D0025607D002898
:1084400007BF08204021002080218DF804104AA198
:108450000091072300F045F9A289BFB2F81C9042B1
:1084600080F28480A068C15D8DF805107F1CB9B2D0
:1084700002F05BFF8046BF1C9DF8050010B101288B
:1084800067D071E04FF0000BA068BFB2C65D7F1CE3
:10849000A289B9B202F049FF8146BF1C00F06EF814
:1084A0008246BF1C3046FDF72FFF70B930460AF0F8
:1084B00087FE8DF800000346A289B9B2A06802F0D9
:1084C00019FF83469DF800003F182068218A00911B
:1084D0009DF80430424641884079FCF72AFB002889
:1084E0001EBF8078B0428D2625D1482E18BF4C2E55
:1084F00003D0502E18BF512E01D18C261BE02068CE
:1085000040798DF8090020684088ADF80A00ADF880
:108510000C809DF804008DF80E00208AADF8100044
:10852000ADF81490ADF816A0CDF818B002A800F080
:1085300035FA060090D0304602F087FE9DF805001F
:1085400002F083FE404602F08FFE0125852E83D186
:1085500010E000F013F8BF1C03469DF804204146CC
:10856000204600F0C0FAE4E78526E4E715B90020CC
:1085700002F06BFEAFE0000000000000A289B9B27B
:10858000A06802F0D2BE2DE9F04F87B00446267DE8
:10859000607D002807BF08204FF0400800204FF002
:1085A0008008B2A10091092300F09BF8DFF81C9627
:1085B00008E0862002F049FE284602F046FE3846D2
:1085C00002F052FEA289B6B2F01C8242C0F2838051
:1085D000A068855D761CB1B202F0A7FE0746B61C06
:1085E000012D0ED82068218A009143463A464188E1
:1085F0004079FCF79EFA5FEA000ADAD04FF0000BF0
:1086000003E08520D6E70BF1010B5FFA8BFB5846A0
:10861000B9F80020904259D201A9FFF7B7FD9DF8A3
:108620000400A84201BF20689DF8051042799142DC
:10863000E9D1BDF806104288914204BFBDF8081088
:10864000B942E0D19DF80A10414502BFBDF80C10B7
:10865000228A9142D7D19DF8041049B1BDF810107B
:10866000E288914202BF9DF8121000798142CAD17E
:10867000002002F0EAFD284602F0E7FD384602F04D
:10868000F3FD15B1012D23D09CE79AF8020002F00A
:10869000DCFDBDF8100002F0E7FDBDF8120002F0AD
:1086A000E3FD9AF80200FDF72FFE00288AD19AF820
:1086B00002000AF085FD0546059FE8B20028E3D0D8
:1086C000F8B202F0C2FD3F0A6D1EF6E78B2071E79B
:1086D000BDF8140074E7FDF7F2FC012007B0BDE817
:1086E000F08F228A21684988FFF72ABB80B503E012
:1086F000401E80B200F011F9DFF8D00400880100BC
:10870000F6D10020DFF8D014087002BD0146B12078
:10871000DFF8B8341B88994200D3704780B508460B
:1087200000F036F9002002BD2DE9F04788B006467A
:108730000F46904699460025DFF890A4109C00E073
:108740006D1CBAF80010A8B2884252D202A9FFF7F5
:108750001DFD9DF80800002804BF9DF80900B042E7
:10876000EED1BDF80A00B84204BFBDF80C00404588
:10877000E6D19DF80E00484504BFBDF81000A042A8
:10878000DED100200190119F38460AF019FD014604
:10879000129C2046412F18BF422F08D102F0CFFD76
:1087A0000146601CFFF7E3FC019001A80421DFF8FB
:1087B0001824ADB218236B43D6180091D6E90223D2
:1087C000FDF758F904460D463846FDF79DFD012892
:1087D00004D10022954208BF944206D148B90698B8
:1087E00000218D4201D8844203D30120307400F06F
:1087F0003FF808B0BDE8F08710B542784B789A4250
:1088000002BF42884B889A421AD182888B889A424A
:1088100002BF82798B799A4212D102890B899A42DE
:1088200002BF02780C78A2420AD13AB182898B89C0
:108830009A4202BF807B897B884201D1012010BD12
:10884000002010BD38B54FF6FF74DFF8805329883B
:108850000F2907DA0C4601462046FFF7A4FC2888BA
:10886000401C2880204632BD0000000000000000AF
:108870002DE9F04F85B04FF0FF34A3460026DFF816
:1088800048734FF47A78DFF8449304E0681A584547
:1088900098BF8346761CB9F80010B0B2884225D242
:1088A00000F073F89DF800000028F3D1BDF80C002B
:1088B00008FB00FABDF80E0008FB00F5FCF7CCFE43
:1088C000B6B2182101FB06F2B958411A20463A44C3
:1088D000127C32B18A4501D20020D8E7AAEB010010
:1088E000D5E7002DD3D08D42D0D2F5E7BA4C1BF19D
:1088F000010F09D05A46B949022002F069F85946D9
:108900002046FBF718FE05E0B549022002F060F8AA
:108910000020207005B0BDE8F08FF0B591B004469E
:10892000AA4D298888422ED200F02FF800208DF819
:1089300001002888401E288081B2A14202D16946E8
:1089400020461BE005A980B2FFF720FC18279E4EA9
:1089500028887843304490EC060B0AA880EC060B7C
:1089600005A92046FFF71FFC07FB04F030440AA9C5
:1089700091EC060B80EC060B69462888FFF713FC88
:108980006846FDF73EF811B0F0BD6946FFF7FEBB43
:1089900080B5FFF7C2FFBDE8014069E72DE9F0426D
:1089A00086B00446894D2E884FF001092089009039
:1089B000A379A28861886078FCF7BBF808B98620A3
:1089C0008EE0E089010004D0A189884238BF872069
:1089D000F6D3002700E07F1C2988B8B2884222D253
:1089E00001A9FFF7D3FB9DF80400002802BF9DF802
:1089F000050061788842EED1BDF8060061888842A2
:108A000002BFBDF80800A1888842E4D19DF80A00A1
:108A1000A179884202BFBDF80C0021898842DAD1D1
:108A20004FF000093E46E0894FF6FF71884207D1BA
:108A3000B9F1000F04BFB0B2FFF7AAFF00204FE06A
:108A40000027B6B2002804BFA08988420AD11422A8
:108A5000214601A8FDF7FEFC01A80BF0D6FF08B1E6
:108A6000012702E0B9F1000F16D00F2EA8BF892010
:108A700036DA00208DF8040060788DF805006088F3
:108A8000ADF80600A088ADF80800A0798DF80A00BE
:108A90002089ADF80C003FB9A089ADF81000E0893D
:108AA000ADF812002069059001A8FCF7AAFF0400A8
:108AB00015D12888864204BF401C2880182000FB5E
:108AC00006F5414FFCF7C8FD785100207A19C2E93C
:108AD000020001A93046FFF766FBFFF7C9FE2046FA
:108AE00006B0BDE8F0822DE9F04786B0044688461E
:108AF00091469A46354D2E88002700E07F1C298834
:108B0000B8B2884229D2FFF740FF9DF80000012843
:108B100001BF20689DF8011042799142EED1BDF865
:108B200002104288914204BFBDF804104145E5D1CE
:108B30009DF80610494502BFBDF80810228A9142EF
:108B4000DCD1BDF80C10E288914202BF9DF80E10F6
:108B500000798142D2D13E461CE00F2EA8BF892069
:108B60002ADA01208DF80000206840798DF8010094
:108B700020684088ADF80200ADF804808DF80690BA
:108B8000208AADF80800E088ADF80C002068007974
:108B90008DF80E00ADF810A06846FCF732FF040017
:108BA00009D12888B1B2814204BF401C288069469F
:108BB000B0B2FFF7F8FA204606B0BDE8F087000033
:108BC000C59D1C8193010001A09F0020FCFE002098
:108BD000FAF900205D81000078AE0020CCBD0300D2
:108BE000ECBD030038B5FEF713FF0BF05BFF78B167
:108BF000FCF7F8FE60B1094C2078FBF713FE054640
:108C00002078FBF750FE3DB1BDE83140FCF7E9BEEE
:108C1000BDE83140FCF7A3BE31BD00009FFE00203F
:108C20007047704780B500F094F8BDE8014094E0CB
:108C3000FEB5044601F014FD0646204601F020FD75
:108C40009DF800100022064203D186F0010318436C
:108C500001D10198027820464FF6FF7506B321280E
:108C60001EDA4223414E022A09DA5A43324432F8CC
:108C70001030AB4214D05B1C22F8103010E00FD142
:108C8000002206EB400703FB02FC37F80CE0AE4580
:108C90001CBF0EF1010E27F80CE0521C022AF2DB79
:108CA000334F37F81020334B33F810C09445B6419A
:108CB000F643F60FAC451CBF0CF1010C23F810C0B5
:108CC000092818BF0B280AD1BF8AB3F814C001EBDA
:108CD0000C0EBE45AEBF9F82614499820DE01D28F7
:108CE0000BD133F8107001EB070C9445BDBF691828
:108CF000C91923F8101023F8102033F810009042FF
:108D000003D316B92046FCF763FE00261A48815D9E
:108D1000A14204D0761CF6B2112EF8DBF7BD112E5D
:108D200016DAFDF7BEFC044614480078844203DBE3
:108D3000DD211348FCF7F6FC1248222111FB04F157
:108D4000084430F81610A9421CBF491C20F8161020
:108D5000F7BD5221074802F00FBBFF225221044801
:108D60000BF0E4BD024A22F8101070475CBC0020F2
:108D7000E4BB002090BB00208CE00300E89E0020B4
:108D80007CE0030038BC0020DFF8201AC87370476D
:108D900070B5DFF81C5A29783824DFF8186A306873
:108DA000614301448A78112A04D0B421DFF8080A0B
:108DB000FCF7B8FC28783168412214FB00F408194C
:108DC000827070BD10B50220FDF76EFCFDF773FCDC
:108DD000DFF8DC39DFF8DC091C780168382044430F
:108DE000DFF8C82908194178042903D1107C401DF7
:108DF000107405E04FF47A7102F11800FBF761FC82
:108E0000BDE81040FDF758BC80B5DFF8B0090BF0A5
:108E100050FFDFF8AC090BF04CFF0CF0B3FABDE8E3
:108E200001400CF0BEBADFF88829DFF88809137812
:108E3000016838204343C818807833281CBF432872
:108E4000532801D101207047002070472DE9FF4EC3
:108E50000CF0C7FF0DF013FA002867D0DFF84C497B
:108E600000202076DFF85C0901790C3001F0AAF9C6
:108E7000207D18B10CF08EFA00202075002121739E
:108E800000F056F80FF0A2FA0DF01EF8DFF83809DE
:108E900000274825DFF81869DFF830B900F1E40948
:108EA00000F1E20A9BF80010F8B288423ED2FDF7CA
:108EB00002FC30784FF6FF7268433AF80010914296
:108EC00018BF012107D100220821484401F0DAFC33
:108ED000411E8941C90F94F8202002F001020A4284
:108EE00020D03078082268433AF80010ADF8081016
:108EF00009EB00016846FDF7ADFA0A230A2201F0EA
:108F0000B5F9DFF8B00896F800C00168382010FB0A
:108F10000CFC02230B2201EB0C0000F12C010020C1
:108F20000FF078FCFDF7C8FB7F1CBBE7BDE8FF8EA8
:108F300010B5DFF87C080178DFF87828382013684E
:108F400010FB01F018444078032818BF04280CD106
:108F500048204143DFF870285018B0F8E2104FF66F
:108F6000FF72914208BF032008D001F099FB04462C
:108F700001F09FFB214603F012F9022001F0BEFB35
:108F80000FF0F6FC00F0C4FF0FF04CFA01F006FA07
:108F900020B10020BDE8104006F00CBD10BDF8B5B2
:108FA000DFF80C78DFF80448E07339783825DFF80B
:108FB00004683068694301448878032818BF002892
:108FC00023D0332818BF432819D100F01FF839786F
:108FD000306815FB01F542195178032918BF04299F
:108FE00007D10321801C4155E07BBDE8F240FDF72D
:108FF000CCBBE07BFDF7C9FBBDE8F14098E7212041
:109000008870BDE8F1400FF022BFF1BDE37B132271
:109010004DA1032010F0D1B838B5DFF8943701F036
:1090200031FA00214FF6FE701519A97010F0A5FA5B
:109030004FF6FF7010F0BDFADFF87047FFF7E6FF5C
:10904000E07BBDE83240FDF7A0BB00002DE9F8430E
:109050000546DFF8940B06F0AFFB80462B4618223E
:1090600039A10320DFF8486710F0A7F8002088F83E
:10907000000031783827DFF83C97D9F800007943B1
:10908000702408444178032918BF042924D00024FF
:10909000290007D1416B91F82400E8B181F8244000
:1090A0009D2017E0FF2D06D04FF47A7045434046CF
:1090B0002946FBF706FB3278D9F8001017FB02F7B8
:1090C00001F13400C15991F8240028B9012281F836
:1090D00024209C20FDF759FB00F01AFF2046BDE834
:1090E000F28310B5DFF8000B06F066FBDFF8C03640
:1090F000DFF8C0161C780A6838214C4311194A6BF6
:1091000092F8241009B9002010BDFBF7E7FA4FF4DC
:109110007A71B0FBF1F0C0B210BD38B5FBF7CDFBF2
:109120000446DFF8C41A06F048FB0546FF2818BFBE
:10913000FDF7C1FA00202070FFF788FFFF2D01D056
:1091400001F05BBA31BD00004242000038B588B082
:1091500004460D46686916220790297C0691E88925
:109160000590297B0491E87A039095F90A10032071
:1091700002912B89CDF800500BA10193234610F0EA
:109180001CF801200CF032F9287B00280CBF4FF6A8
:10919000FE7010F0E6F92B462246014609B0012088
:1091A000BDE83040ABE000004242387057424242D6
:1091B000574244002DE9F047DFF8F49599F800C0D4
:1091C0008846DFF8F0653824316814FB0CFC1D4636
:1091D00082468B1C13F80C0000284BD1170049D095
:1091E000042F47DC10F0F0FA002843D1FDF765FAB0
:1091F00000283FD1FDF763FA08B1042F3ADB287B42
:10920000032817D14FF6FE71884515D1012F08BFED
:109210004FF0000810D0022F2CD110F0A2F94FF619
:10922000FC71884202DA10F09CF901E010F0D2FCE7
:10923000804601E0012F1DD0BAF1000F0CD0287B31
:10924000032838460CBF01210021012F18BF002040
:1092500010F08CFF010030D12946404600F04DFF50
:1092600001002AD1FDF725FAFDF708FA20B1FDF734
:1092700026FA08B1702020E099F80020306814FB2D
:1092800002F4811C085D332818BF532803D0002046
:10929000DFF818158873384600F0F2FE00214FF60B
:1092A000FF7001F0F9F8DFF88417087820B1FDF7B6
:1092B00006FA08B911F032FE0020BDE8F08738B593
:1092C0000446DFF8E85408222146281DFDF7C2F8BD
:1092D000207BDFF8DC340228C8BF00202870287803
:1092E0009421E9730028DFF8CC041C780CBF01211D
:1092F00031210268382044431019817031BD38B5DE
:109300001C46FFF757FF010032D1207B032820467F
:1093100002D1BDE8324062E0FFF7D1FFDFF88C04F4
:109320000021818101F0FCFA014640094FF0010360
:1093300005D1DFF80C0C027803FA01F108E001F026
:109340001F0140F0180003FA01F1052241EAC06153
:10935000062011F0E9FE01000AD0DFF85444DFF8DE
:10936000541425780B6838214D43002259198A700E
:1093700032BD10B50446DFF83824DFF8380413781E
:10938000016838204343C8184078032818BF0428D0
:1093900006D1E079C10744BF94F9050011F071FFCF
:1093A000207801F029F801F064F8228961890346E8
:1093B000002011F0E3FF040004D09420FFF7EFFD3C
:1093C000204610BDDFF8E4439420E0730220FDF74F
:1093D0006AF900F093FD03202074002010BD10B541
:1093E00004460022082101F04DFA08B1012010BD09
:1093F00010F0B7F800224FF6FF7100F0B9FE217CA3
:10940000204600F0DFFE6269E189207C0FF0F9FA66
:10941000DFF89C23DFF89C0313780168382043436E
:10942000C8184178012908BF11F0C8FCFFF780FD7A
:10943000002010BD2DE9FC4100F0A6F804460A44C6
:10944000907810B910F0C0F908B1702094E00BF0DA
:10945000D6FFDFF858832CB10222214608F1200004
:10946000FCF7F8FF684600F0E1FF08B1932083E0C5
:109470009DF8003014227DA103200FF09EFE00F025
:10948000F9FE010078D19DF8000000F0F9FD327876
:1094900038686A43411C885C012818BF022808D03C
:1094A000032818BF042842D1002001F03BF800280F
:1094B0003DD000F0F6FE327838686A43411C885C83
:1094C000032814BF042812F058F8FFF731FD0120DB
:1094D00012F07AF801004FD13078396868434A1C9D
:1094E000125C032A18BF042A0ED198F820309C077A
:1094F00008D50522DFF8EC16012000F061F8010024
:1095000039D039E0032A01D0042A34D1084400F1CB
:109510002C0102230B2201200FF07CF900F02EF821
:1095200091F82C20500726D50CF0FCFD23E0317873
:109530003868132215FB01F5012441198A700020B7
:1095400088F80D0001F0ECF9400903D101F0E8F9C9
:1095500084400BE001F0E4F9450901F0E1F900F085
:109560001F0045F01805844044EAC56405222146E1
:10957000082011F0D9FD0020BDE8F6813178386867
:1095800015FB01F541197047894E32783825894F0E
:1095900039686A437047FF2212E0000038B504467C
:1095A000104603280D4618BF042801D0022032BD02
:1095B00000F066FD294620465FF0FF02BDE8384016
:1095C0002DE9FC4116468046794A0D4600F0F0FD33
:1095D0003FD08778022F07D0032F3AD15FEA0801E6
:1095E00002D10079810734D4332001F087F80CF0E0
:1095F000F8FB15F0784F294612BF0522DFF8400925
:109600000278062011F090FD0446A0B9674F387328
:1096100001200BF0EBFE0FF0C0FF78805FEA08003E
:1096200014BF022001203870381D00F017FF002001
:109630007873BE7302E0384601F060F85FEA080014
:109640003146284602D0FCF785F903E0FCF781F9A2
:1096500000E070240194009543462C2204A10320CD
:109660000FF0ABFD2046BDE8F6810000424200004D
:10967000424244420000000010B50BF09EFC00F195
:109680001004204611F0A2FF4FF6FF510140204682
:10969000BDE8104011F0A0BF2DE9FF470646444D3C
:1096A0000FF05FFF2A788246DFF808913824D9F856
:1096B00000006243411C885C032818BF042806D1BF
:1096C000F079C10744BF96F9050011F0DAFD307852
:1096D000DFF8347C4FF0480800F08EFE70890021DE
:1096E00000F0DAFE01F0DDF878B1BAF1000F03D036
:1096F0004FF6F8718A4508DB10F06CFA297882463B
:1097000018FB01F17A5A9042F6D050460FF035FF1F
:1097100030890FF04EFF06208DF8080000F0A9FEFA
:109720008DF809000020019000902878022302AAF9
:1097300018FB00F00121385A12F099F8064620B9BA
:109740001820FFF72CFC182022E0287818FB00F8DE
:10975000304637F80810154F12F0B4FA387802285E
:109760001CBF3046FFF788FF00F06DF8C8B19420A9
:10977000F8730220FCF797FF2A78D9F8000000F070
:10978000B6FC08D1C82100F031FA0320387400205B
:1097900004B0BDE8F0874FF4167100F027FA0020FE
:1097A000F4E79420FFF7FBFB0120F1E72CF8002001
:1097B000DBFF0020BC9A002044A600002EFF002002
:1097C00028FF002050F80020FCF90020E89E00202F
:1097D00078B587B00C4616461D4630B9204605F0D0
:1097E000F9FF03A911F096FB03A80C990190072338
:1097F0008DF8096001208DF80830360A8DF80B10BD
:1098000000908DF80A60042302AA0121204612F07C
:109810002EF8060014D0214612F054FA15B930463D
:10982000FFF72AFF0D9808B930460AE0204605F0F8
:10983000E0FF18B1304612F00BFB01E000F003F836
:10984000002008B070BD00220021304612F087BB16
:109850002DE9F64F85B08A461C46104612F0ECFA08
:109860000546BDF8180003A9002712F03CF8002CAB
:109870004FF6FF79B84614BF4FF0010BBB460026E8
:10988000BBF1000F07D008B10DF10C08667876081F
:1098900006F0010604E0BDF8180012F041FA804617
:1098A000DFF8F01B0978DFF8782C38201268414384
:1098B000531C585C032818BF042800F0B38010988C
:1098C0006B1C11441D5C8DF808A0680800F00100B5
:1098D0008DF809002806887858BF45F080050228D1
:1098E00007D15FEA0A0002BF496B91F82400002803
:1098F00001D1022730E040460FF0A4FDADF8000092
:10990000BDF8180012F022FA814608B94FF001099B
:1099100030000CBF4FF0050A4FF0010ABBF1000FF9
:1099200004D0201D11F052FE834601E0BDF800B0C6
:10993000BDF8180012F094F9CDF80490CDF800A00D
:109940002B465A46414600F0010011F0DFFA00F0C4
:109950006FF8814608BF01279CB19DF8080018B92F
:10996000484600F065F802D1201D11F02FFE0121BC
:1099700001910146009733464A464046FFF728FFCB
:109980000AE0BDF8180012F06BF93B464A46414622
:1099900000F0010011F0E3FC9DF8090020B94FF63A
:1099A000FF71404612F034FE002F3BD19DF80900B4
:1099B00028B14146484612F056FE12F0B9FE30007A
:1099C0001EBF48464FF6FF71884219D005F002FFCE
:1099D000FF2815D0DFF8BC7A97F800C0DFF8401BED
:1099E0000A68382111FB0CFC02F134034BF6FF71BD
:1099F00053F80C20526832F810300B4022F8103027
:109A000084B10FF0AEFD0EB1002405E09DF8081002
:109A1000002914BF03240124014643464A46204638
:109A200013F076F807B0BDE8F08F0000F99E002033
:109A30004FF6FF71884270472DE9FE4F81460F4671
:109A4000144601A9384611F04EFF834600200090CD
:109A5000384612F0F1F98246DFF8605B5FEA0901EF
:109A600008D0BBF1000F18BF0DF1040B11F030FF4F
:109A7000064604E0384612F053F983462E4638462F
:109A800012F0DAF902590DF10100009211F09EFD79
:109A900080469DF803405FEA090006D00822294667
:109AA000304613F051F8002823D1DFF8E869317807
:109AB0003825DFF8502B15FB01F112685318D878C0
:109AC00018B19AF80100830714D55FEA090011D094
:109AD000901C415C022908BF002C0BD140460FF0BE
:109AE0004CFD0EF073FC9923FFF791FA9920FCF7D7
:109AF0004CFE6EE000F0D5FE0028DFF80C7B18BFAE
:109B0000002C05D09420FFF74AFA0020387660E058
:109B100000F0C7FE00285CD0584612F0B8FBFF28C2
:109B2000DFF8E44718BF5FEA090106D13278482020
:109B300059464243A05A12F096FD12F0F9FD3178D1
:109B400048205A4641434046615ADFF8B84A00F07F
:109B50000FFBDFF8B80A90F9021009027984307817
:109B6000216815FB00F08A1C125C012A16BF312AFD
:109B700011224322891C0A540220FCF794FDDFF8CD
:109B8000900A016800F032F811F0F7FC00203874F8
:109B9000317815FB01F521684A19D07820B907F111
:109BA0001800FAF783FD12E0B9F1000F06D09AF819
:109BB0000100820702D5FFF749F908E0481C415D22
:109BC000042904D1052100F011F809203874AD21D1
:109BD000F97300F0E3FB10B1002005F0EBFEBDE8E7
:109BE000F78F000000F8FF0778F7002007F1180052
:109BF000FAF767BD2DE9F04F88468DB0404612F068
:109C00001BF983460922002112F0D0FF0546404689
:109C100012F086F8814602AB052205A9404613F0F2
:109C20001DF88DF8000002282BD09DF808000023B5
